:100000000C94D5030C94FD030C94FD030C94FD0398
:100010000C94FD030C94FD030C94FD030C94FD0360
:100020000C94FD030C94FD030C94401D0C94EC1BEC
:100030000C94FD030C94FD030C94FD030C94FD0340
:100040000C94FD030C94FD030C94FD030C94FD0330
:100050000C94FD030C94FD030C94FD030C94E71E1B
:100060000C94FD030C94FD030C94FD030C94FD0310
:100070000C94FD030C94FD030C94FD030C94FD0300
:100080000C94FD030C94FD030C94FD030C94FD03F0
:100090000C94FD030C94FD030C94FD030C94FD03E0
:1000A0000C94FD030C94FD030C94FD03A506960629
:1000B0007D066F065F0652064306370627061606BC
:1000C0000306F005D905C405AF059E058E057D051F
:1000D0005D054C053A0517050205F304DB04BB0476
:1000E000AC049A048B04A806850482047D04780479
:1000F00074046F04690465045E045A0456045104D0
:100100004E044A0444043D04370432042D042104FF
:1001100014040C040104F503A806A806A806A80602
:10012000A806A806A806A806E803A806A806A80622
:10013000A806A806D903D303C703B803A4039903E9
:10014000A806A806A806A806A806A8069403900371
:100150008B03860381037C03780373036D03A80676
:10016000A806A806A806A806A806A806A806A8061F
:10017000A806A8063203FB02C40286026C026202D1
:100180003F021502F101CD01AD018C012020434C4D
:10019000454152203A20636C65617220676C6F6242
:1001A000616C207661726961626C65730020204920
:1001B0004E464F203A2073686F77206D656D6F72E1
:1001C000792073697A65732C206574630020204C54
:1001D0004F4144203A206C6F616420612070726F3F
:1001E0006772616D2066726F6D20454550524F4DAC
:1001F00000202053415645203A20736176652074D3
:1002000068652070726F6772616D20746F2045455C
:1002100050524F4D0020204C495354205B73746161
:1002200072745D205B636F756E745D203A206C693B
:100230007374207468652070726F6772616D00203E
:10024000204E4557203A20636C65617220746865C2
:10025000206578697374696E672070726F67726168
:100260006D00436F6D6D616E64733A00616E642062
:10027000657865637574656420696D6D6564696131
:1002800074656C792E00556E6E756D62657265646D
:10029000206C696E6573206172652074726561748B
:1002A000656420617320636F6D6D616E6473206F90
:1002B000722042415349432073746174656D656EC9
:1002C00074732C00456E746572696E672061206ED0
:1002D000756D626572206F6E20697473206F776E22
:1002E0002064656C6574657320616E206578697340
:1002F00074696E67206C696E652E004E6577206CA0
:10030000696E6573207265706C61636520657869DC
:100310007374696E67206C696E65732077697468A1
:10032000207468652073616D65206E756D626572FD
:100330002E004C696E657320626567696E6E696E2A
:100340006720776974682061206E756D6265722020
:100350006172652073746F726564206173207072BE
:100360006F6772616D206C696E65732E00636C65DA
:1003700061720068656C70006E657700696E666F0B
:10038000006C6F616400736176650071756974005B
:1003900072756E006C697374004672656520524117
:1003A0004D3A2000504D42415349432076657273C7
:1003B000696F6E20302E3100546F74616C2045459A
:1003C00050524F4D3A2000546F74616C2052414D91
:1003D0003A200062797465730050726F6772616DC4
:1003E0002073697A653A20004C696E652064656CFB
:1003F0006574656400616E616C6F677772697465BE
:1004000000616E616C6F67726561640070696E6D2A
:100410006F6465006469676974616C77726974659B
:10042000006469676974616C7265616400706F6B08
:1004300065007065656B0064656C6179006D696C61
:100440006C697300696E707574006C657400746F0C
:10045000006E65787400666F720072656D0072657B
:100460007475726E00656E6400676F737562006705
:100470006F746F006E6F7400656C736500746865EF
:100480006E006966007072696E740045787065630D
:1004900074656420636F6D6D61004E6F2073746FBF
:1004A0007265642070726F6772616D004578706567
:1004B0006374656420636F6D6D610045787065637A
:1004C000746564207661726961626C65206166742E
:1004D0006572206B6579776F72640045787065632B
:1004E00074656420273D27206166746572206E6103
:1004F0006D6500464F5220776974686F757420549B
:100500004F00464F5220776974686F757420273DFD
:1005100027207369676E00464F52206D75737420F3
:10052000626520666F6C6C6F77656420627920610C
:10053000207661726961626C6500556E7072696ED9
:100540007461626C6520746F6B656E00556E6578C2
:1005500070656374656420746F6B656E00556E73AF
:100560007570706F7274656420696D6D6564696122
:1005700074652073746174656D656E74004D616C93
:10058000666F726D6564206E756D626572004E7582
:100590006D62657220746F6F206C6F6E67004E45E0
:1005A000585420776974686F757420464F52005410
:1005B0006F6F206D616E79206E657374656420467F
:1005C0004F52730052455455524E20776974686FEC
:1005D000757420474F53554200546F6F206D616E04
:1005E00079206E657374656420474F5355427300DC
:1005F000556E646566696E656420766172696162D4
:100600006C6500556E646566696E6564207661721E
:100610006961626C65004469766973696F6E206216
:1006200079207A65726F00426164206C696E652082
:100630006E756D62657200496E7465727275707464
:10064000656400496E70757420746F6F206C6F6EF6
:10065000670053796E746178206572726F7200550D
:100660006E6E756D6265726564206C696E65004FB3
:100670007574206F66206D656D6F727900546F6BB5
:10068000656E697A657220696E7465726E616C2040
:100690006572726F7200546F6B656E20746F6F209D
:1006A0006C6F6E67004F4B000012010002EF0201F9
:1006B00040F41B0492000101020301556E6B6E6F42
:1006C000776E0055534220494F20426F617264009B
:1006D00004030904080B00020202010009040000DF
:1006E000010202000005240010010524010101049B
:1006F00024020605240600010705810310004009B5
:10070000040100020A000000070502024000000781
:10071000058302400000070605040100080A0B0CCF
:100720000D090000000200090F0000030401000C85
:1007300000000000000000000000000000000000B9
:1007400004080201104080401020408040800802D0
:10075000040180402010020110801020404020043D
:100760000404040403040502020202040302020258
:10077000020606060606060404020202040400003D
:1007800000002300260029002C002F00000000009C
:10079000250028002B002E0031000000000024005E
:1007A00027002A002D003000D21E11241FBECFEFDB
:1007B000DAE0DEBFCDBF11E0A0E0B1E0E0E3F1E5BB
:1007C00002C005900D92A637B107D9F722E0A6E73F
:1007D000B1E001C01D92AD3AB207E1F713E0C5EDFB
:1007E000D3E004C02197FE010E94B222C43DD1078C
:1007F000C9F70E9420200C9478280C940000CF9216
:10080000DF92EF92FF920F931F93CF93DF9300D06D
:1008100000D0CDB7DEB76B017A018901BE016F5FF1
:100820007F4FC6010E948314882391F1F8018081D3
:100830009181092E000CAA0BBB0B49815A816B8157
:100840007C81481759076A077B0714F182819381DD
:10085000248135812817390714F0892BC9F441E523
:1008600050E0B60188E791E00E945425F701EC19A9
:10087000FD09E858FE4F108288E791E00E94B41706
:100880000E94D517F8018481958101969583848310
:1008900081E00F900F900F900F90DF91CF911F91FB
:1008A0000F91FF90EF90DF90CF9008950F931F93DB
:1008B000CF93DF93CDB7DEB728970FB6F894DEBF9E
:1008C0000FBECDBF8B01BE016F5F7F4F0E948314AF
:1008D000D8018C9389819A81AB81BC81BC01CD0107
:1008E00028960FB6F894DEBF0FBECDBFDF91CF9133
:1008F0001F910F9108956F927F928F929F92AF9266
:10090000BF92CF92DF92EF92FF920F931F93CF93FC
:10091000DF93CDB7DEB7C456D1090FB6F894DEBF6A
:100920000FBECDBF0E94380AD82EC92E0E940914CE
:10093000F82EE92E0E942706982E892E682F792FEF
:100940008D2D9C2D0E942D136AE171E08F2D9E2D1F
:100950000E941C14A1961FAEA1978E01005A1F4F32
:100960002AE230E040E050E060E471E0892D982D0B
:100970000E94830684E491E00E94B417A0961FAE03
:10098000A097AE01415A5F4F61E570E088E791E0C2
:100990000E940419A0968FADA097882329F00E9489
:1009A00095170E94D517E6CF10917801112311F306
:1009B000812F012E000C990B0E94C924892B19F458
:1009C0001F3309F034C140E550E068E771E0CE0123
:1009D00001960E94542567E471E0CE0101960E94C1
:1009E0000E259C018E01085A1F4FB12CA12C3801F5
:1009F00021153105B9F4F3010081118161E5C801C8
:100A00000E9450178823E9F06F2D7E2D8D2D9C2D8F
:100A10000E949F0A882309F4ADCF8D2D9C2D0E9442
:100A20009E12A8CFF801219331938F0167E471E002
:100A300090E080E00E940E259C01FFEFAF1ABF0AF4
:100A4000D7CF60E5C8010E9450178823A9F110E0B4
:100A500000E0F2E0AF16B10464F1BE01625A7F4FCC
:100A6000F301828193810E9456048B01F3E0AF165B
:100A7000B104F9F4BE01625A7F4FF301848195817C
:100A80000E945604CB0164961FAF0EAF6497669622
:100A90009FAF8EAF669768961FAE1EAE6897AE0189
:100AA0004E5A5F4F6FEF73E08F2D9E2D0E944714BB
:100AB00061CF90E080E0E7CF62E5C8010E94501767
:100AC000882311F1892D982D0E943A068F2D9E2D95
:100AD0000E9432148D2D9C2D0E94430ACC59DF4F69
:100AE0000FB6F894DEBF0FBECDBFDF91CF911F913F
:100AF0000F91FF90EF90DF90CF90BF90AF909F90BD
:100B00008F907F906F90089563E5C8010E94501701
:100B1000882329F08F2D9E2D0E9460182BCF64E52D
:100B2000C8010E945017882329F08F2D9E2D0E9406
:100B3000A11820CF65E5C8010E945017882331F124
:100B400088E40E9495170E94D51784E40E949517A7
:100B50008F2D9E2D0E9409179C01990F440B550B58
:100B6000A5962CAF3DAF4EAF5FAFA597CA01B901B7
:100B70000E94B91781E591E00E94B41785E40E94B4
:100B800095170E94D5170E940418F4CE66E5C80197
:100B90000E945017882329F08F2D9E2D0E94F91650
:100BA000E9CE67E5C8010E945017882389F014E652
:100BB00040E568E771E0812F0E94431788E791E0E4
:100BC0000E94B4170E94D5171F5F103789F7D2CE45
:100BD00068E5C8010E945017882329F08D2D9C2DAF
:100BE0000E946113C7CE63E2C8010E945017882398
:100BF00011F082E1D4CE64E2C8010E945017811145
:100C0000F8CF40E550E068E771E0CE0101960E9420
:100C1000542562E671E0CE0101960E942E25BE01A8
:100C20006F5F7F4F8D2D9C2D0E943113A3CE68E7FF
:100C300071E08F2D9E2D0E9449168130910529F07B
:100C4000029709F097CE8EE3AACE88E0A8CECF9384
:100C5000DF9382E090E00E94D222EC01892B31F0F8
:100C60008AE097E00E94661399838883CE01DF9122
:100C7000CF910895CF93DF93EC01888199810097FC
:100C800011F00E94D413CE01DF91CF910C946E230A
:100C9000AF92BF92CF92DF92EF92FF920F931F938A
:100CA000CF93DF937C01B62EA72EFC01808191812A
:100CB0000E9401146C0110E000E00C151D057CF091
:100CC000D0E0C0E08D2F9C2FDF91CF911F910F912D
:100CD000FF90EF90DF90CF90BF90AF900895B80154
:100CE000F701808191810E94E313D82FC92F0E94C0
:100CF0001807BC018B2D9A2D0E944425892B11F3D6
:100D00000F5F1F4FDACF8F929F92AF92BF92CF9219
:100D1000DF92EF92FF920F931F93CF93DF93EC013B
:100D20007B0149016A010E944806A401B6010097AF
:100D300071F0DF91CF911F910F91FF90EF90DF90B5
:100D4000CF90BF90AF909F908F900C941C07C701DD
:100D50000E94E506BC01892B81F088819981DF9191
:100D6000CF911F910F91FF90EF90DF90CF90BF90A8
:100D7000AF909F908F900C947B1383E0F801808359
:100D8000DF91CF911F910F91FF90EF90DF90CF9067
:100D9000BF90AF909F908F900895CF93DF93EA011B
:100DA0000E944806009751F00E94220768837983C9
:100DB0008A839B8381E0DF91CF91089580E0FBCF10
:100DC000FC01808191810C94AA13CF92DF92EF9263
:100DD000FF920F931F93CF93DF936C017A018B01E6
:100DE00086E090E00E94D222EC01892B49F0C601F6
:100DF0000E94F42499838883EA82FB820C831D83FA
:100E0000CE01DF91CF911F910F91FF90EF90DF9076
:100E1000CF900895CF93DF93EC018881998100975B
:100E200011F00E946E23CE01DF91CF910C946E23BE
:100E3000FC01808191810895FC0142835383648386
:100E400075830895CF93DF9300D000D0CDB7DEB780
:100E5000FC012281338144815581CA01B9010F907F
:100E60000F900F900F90DF91CF910895CF93DF9364
:100E7000D82FC92F84E390E00E94D222FC01D083B6
:100E8000C18314A615A6128213AA12AADF91CF91CC
:100E900008950C946E23CF93DF93DC019C96EC9124
:100EA0009C9780E0E63268F4ED01CE0FD11D6B8394
:100EB000EF5F9C96EC939C97EA0FFB2FF11D13823A
:100EC00081E0DF91CF9108954F925F926F927F9270
:100ED0008F929F92AF92BF92CF92DF92EF92FF924A
:100EE0000F931F93CF93DF9300D000D000D0CDB7E6
:100EF000DEB78D839E838B01AD81BE8112968C916E
:100F0000811116C0ED81FE8114A6DF0116A617A679
:100F100010AA11AA138260807180F301F080F11091
:100F20001EC084E09D968C939D9781E012968C93D1
:100F300026960FB6F894DEBF0FBECDBFDF91CF91DE
:100F40001F910F91FF90EF90DF90CF90BF90AF90E7
:100F50009F908F907F906F905F904F900895CF2CCF
:100F60000F2C000CDD08C6010E94C9249C01892BAE
:100F700019F4FFE3FF1239C082E0AD81BE819D9676
:100F80008C93F12CE12CCC24C3945701D301DD9038
:100F90003D018D2D0D2C000C990B0E94B924892B3D
:100FA00019F4BFE3DB1214C0E8E2EE16F10469F0B5
:100FB0006D2D8D819E810E944B07811102C0F80129
:100FC000C082FFEFEF1AFF0AE0CF38E2A32EB12C68
:100FD000D8018C918111ACCFED81FE81808191810E
:100FE0008A0D9B1D91838083A3CFF3E2FF12B3C0D0
:100FF000C3010196AD81BE818D939C93F3018181E4
:10100000082E000C990B0E94D124892B09F483C06F
:1010100081E0AD81BE819D968C93F301618180ED6D
:10102000860F862E062E000C99088A3008F047C0DD
:10103000F0E38F1A9108092C000CAA08BB088D81D7
:101040009E810E944B07A2E06A0E711CCC24C394BF
:10105000D12C44244394F30151903F01E52C052CFD
:10106000000CFF08C7010E94D124892B09F43FC05E
:10107000F8E2CF16D104D9F1652D8D819E810E94B1
:101080004B07811102C0F8014082FFEFCF1ADF0A3F
:1010900094E0880C991CAA1CBB1C9A95D1F780ED92
:1010A000850D8A30C0F480E3E81AF108C701FF0C0F
:1010B000AA0BBB0B880E991EAA1EBB1ECCCF8FEBB2
:1010C000860F863020F487E3881A9108B4CF97E51D
:1010D000891A9108B0CF8FEB850D863020F497E305
:1010E000E91AF108E3CFA7E5EA1AF108DFCFAD81ED
:1010F000BE819E968D929D92AD92BC92D197F80141
:101100008081811115CF8D919C911197C80ED91EA8
:10111000CD92DC920DCF85E0AD81BE819D968C9302
:101120009D9763E2CD0126960FB6F894DEBF0FBE01
:10113000CDBFDF91CF911F910F91FF90EF90DF9086
:10114000CF90BF90AF909F908F907F906F905F9067
:101150004F900C944B07B0E3CB1AD108EAE0CE16BF
:10116000D10408F061C081E0AD81BE819D968C9371
:101170009D97F3016081862E062E000C9908F0E3FE
:101180008F1A9108092C000CAA08BB08CD010E94F7
:101190004B07EE24E394F12C55245394F301EE0D08
:1011A000FF1D6081C62E062E000CDD08C601C0970B
:1011B0000A9730F5F8E2EF16F10411F18D819E8166
:1011C0000E944B07811102C0D8015C92BFEFEB1A5D
:1011D000FB0AAAE0B0E0A50194010E94B82269834D
:1011E0007A838B839C834601E0E38E1A9108092C55
:1011F000000CAA08BB08860E971EA81EB91ECECFEB
:10120000AD81BE819E968D929D92AD92BC92D197FA
:10121000F801808181118CCE8D919C911197E80EFF
:10122000F91EED92FC9284CEF0E2FF1619F089E0EF
:10123000F81211C0F3012E2F9F2F81918032D9F324
:101240008930C9F3D8018C91811172CEED81FE8174
:101250002083918357CEF2E2FF1249C08FEF681AC4
:10126000780AAD81BE8111967C926E9283E09D9644
:101270008C93EE24E394D801FC90F1101DC0F3018F
:10128000E20FF31F60816A30B9F06623A9F0C9014B
:1012900001966C01623209F581818232D9F48D8127
:1012A0009E810E944B07811102C0D801EC929601E9
:1012B0002F5F3F4FFF20F9F2F8018081811138CE76
:1012C000AD81BE818D919C911197820F931F8D935B
:1012D0009C932ECEFF24F394EBCF8D819E810E94B0
:1012E0004B07811102C0F801E0829601C4CF80ED66
:1012F0008F0DBAE08A30D8F08F2D8F7D81548A31DE
:10130000B0F0FB16B1F085E0ED81FE8185A7D30139
:101310006C91CF010E944B07F8018081811108CEAA
:10132000AD81BE818D919C9111970196D0CFFB121A
:101330000CC084E0ED81FE8185A7FFEF6F1A7F0A64
:10134000AD81BE816D927C92F3CD82E0F801808305
:10135000EFCDFC0182810895CF93DF9300D000D0C0
:10136000CDB7DEB7FC0126A537A540A951A9CA0112
:10137000B9010F900F900F900F90DF91CF910895CA
:10138000FC0181E095A5913009F080E00895FC0111
:1013900085A5853019F481E09381961380E0089546
:1013A000FC0183810895FC0181E095A5933009F04B
:1013B00080E0089503960895FC0181E095A59230A0
:1013C00009F080E0089503960895FC0181E095A559
:1013D000943009F080E00895FC01718360830895E2
:1013E000FC01808191810895EF92FF920F931F93EA
:1013F000CF93DF9300D000D0CDB7DEB77B0189015A
:10140000BE016F5F7F4FC7010E948314882361F183
:1014100086E090E00E94D222FC01892BF9F08981BC
:101420009A81AB81BC8180839183A283B383E48260
:10143000F582D8018D919C91BF01FC01828193813D
:101440000E947B1381E00F900F900F900F90DF911F
:10145000CF911F910F91FF90EF90089583E0D801F5
:1014600012968C9380E0EFCF94E0F8019283EBCF5B
:1014700081E490E00E94D222FC01892B11F01382BA
:101480001282CF010895CF93DF93EC018A819B8173
:10149000009711F00E94D413CE01DF91CF910C94EC
:1014A0006E230F931F93CF93DF9300D000D000D013
:1014B000CDB7DEB78C016E837D83842F4423A1F1E9
:1014C0000E9495178AE491E00E94B417D8011496FF
:1014D0008D919D910D90BC91A02D89839A83AB83B2
:1014E000BC83BC01CD010E94B9178E819D810E94F1
:1014F000E30989839A83E981FA818081882341F015
:1015000083E591E00E94B41789819A810E94B41703
:1015100026960FB6F894DEBF0FBECDBFDF91CF91F8
:101520001F910F910C94D51726960FB6F894DEBF35
:101530000FBECDBFDF91CF911F910F9108950F93F3
:101540001F93CF93DF9300D00F92CDB7DEB78C01FE
:10155000FC01718360831482158216821782828156
:101560009381009729F00E94D413F801138212820C
:101570008EE693E20E946613F80193838283892B9F
:10158000D1F01B821A830983AE014F5F5F4F64EF76
:1015900079E0808191810E9447141B8111110CC058
:1015A00081E0111180E00F900F900F90DF91CF91AB
:1015B0001F910F91089513E041E569EC71E0812FCF
:1015C0000E94431789EC91E00E94B4170E94D5173E
:1015D000E7CF0F931F93CF93DF938B01642FE90124
:1015E000C8010E94C709882341F0BE01C801DF91EC
:1015F000CF911F910F910C94640783E18883DF9151
:10160000CF911F910F9108958F929F92AF92BF92A9
:10161000CF92DF92EF92FF920F931F93CF93DF93BE
:10162000CDB7DEB728970FB6F894DEBF0FBECDBF9B
:101630004C018B015A01CB010E94C0098823F1F0B3
:10164000C8010E94AC096B017C01B501C8010E9470
:101650006407C701B60128960FB6F894DEBF0FBE27
:10166000CDBFDF91CF911F910F91FF90EF90DF9051
:10167000CF90BF90AF909F908F9008956DE2C8017A
:101680000E94C7098823A1F0B501C8010E94640720
:10169000A501B801C4010E94040B6B017C01F09408
:1016A000E094D094C094C11CD11CE11CF11CD1CF9A
:1016B00068E2C8010E94C7098823F1F0B501C8019A
:1016C0000E946407F5018081882321F0C12CD12C70
:1016D0007601BFCFA501B801C4010E94470C6B0180
:1016E0007C01950149E2B801C4010E94E90AF501B3
:1016F00080818111EBCFADCFC8010E94DC09882326
:1017000081F119821A821B821C82C8010E94E3099E
:10171000BC01AE014F5F5F4FF401808591850E944F
:10172000CD06811115C08AE00E94951780E591E0F1
:101730000E94B41780E591E00E94B417C8010E948E
:10174000E3090E94B4170E94D5178AE0F50180834F
:10175000B501C8010E946407C980DA80EB80FC8073
:1017600078CF85E0F5018083B1CF5F926F927F9251
:101770008F929F92AF92BF92CF92DF92EF92FF92A1
:101780000F931F93CF93DF93682E592EE62E772E5B
:101790006A010E94040B8B01D82FC92FF6018081AA
:1017A0008823B9F000E010E0D0E0C0E0B8018D2F50
:1017B0009C2FDF91CF911F910F91FF90EF90DF90C1
:1017C000CF90BF90AF909F908F907F906F905F90E1
:1017D00008958E2D972D0E94D009F82EF601808154
:1017E0008111E0CFFAE2FF1631F08FE2F81619F01E
:1017F000E5E2FE12DBCFB6018E2D972D0E94640725
:10180000A6016E2D772D862D952D0E94040B4B0180
:101810005C01F60180818111C5CFFAE2FF1699F0D3
:101820008FE2F816D9F0E5E2FE122BC08114910484
:10183000A104B104C1F0B8018D2F9C2FA501940122
:101840000E94932207C098014D2F5C2FC501B4015F
:101850000E9461228B01D82FC92F13C081149104DB
:10186000A104B10421F489E0F60180839BCFB80183
:101870008D2F9C2FA50194010E9493228901D42FC2
:10188000C52F8E2D972D0E94D009F82EABCF5F92D9
:101890006F927F928F929F92AF92BF92CF92DF9280
:1018A000EF92FF920F931F93CF93DF9300D000D05E
:1018B0000F92CDB7DEB7682E592E6D83172F042FE8
:1018C000752E862F972F0E94DC09882309F443C0C8
:1018D0008D81912F0E94E30962E20E9450178823B4
:1018E000D1F1602F772D8D81912F0E946407402FB9
:1018F000572D6D81712F862D952D0E94470C698380
:101900007A838B839C8331E020E090E080E0498102
:101910005A816B817C81452B462B472B09F030E0A7
:10192000C32ED22EE92EF82EC701B6010F900F90CC
:101930000F900F900F90DF91CF911F910F91FF901B
:10194000EF90DF90CF90BF90AF909F908F907F905F
:101950006F905F900895402F572D6D81712F862DC8
:10196000952D0E94B50B6B017C018D81912F0E94FA
:10197000D009898379817B3251F07D3241F0763212
:1019800031F07C3721F0872F8C53833068F6602F3D
:10199000772D8D81912F0E946407402F572D6D81E7
:1019A000712F862D952D0E94B50B4B015C0159813D
:1019B0005C3321F15CF45B32B9F05D32D1F0563228
:1019C000A1F6C622D920E822FB20CFCF69816E3351
:1019D000E9F06C3731F16D3341F681E0C814D90478
:1019E000EA04FB0489F418C0C80CD91CEA1CFB1CCF
:1019F000BCCFC818D908EA08FB08B7CF81E0C814E3
:101A0000D904EA04FB0444F080E006C081E08C14B1
:101A10009D04AE04BF04C4F7C82ED12CF12CE12CD8
:101A2000A4CFC828D928E82AFB289FCFDF92EF92BD
:101A3000FF920F931F93CF93DF93E82ED92ED62FCB
:101A4000C72F8A01BA018D2F9C2F0E946407F801CD
:101A50008081811184C08D2F9C2F0E94E509F82E72
:101A6000882349F0DF91CF911F910F91FF90EF9064
:101A7000DF900C94D5178D2F9C2F0E94D3098823BB
:101A8000A1F08D2F9C2F0E94DA090E94B417B80193
:101A90008D2F9C2F0E9464078D2F9C2F0E94E5099B
:101AA000882349F3F1105BC0DDCF6CE28D2F9C2FB2
:101AB0000E94C709882319F081E591E0E6CF6BE326
:101AC0008D2F9C2F0E94C709882341F0B8018D2FCC
:101AD0009C2F0E946407FF24F394DECF68E28D2FD1
:101AE0009C2F0E94C709882371F0A8016D2F7C2FBD
:101AF0008E2D9D2D0E94470CF801208121112FC0B1
:101B00000E94B917C9CF6DE28D2F9C2F0E94C70983
:101B10008111EBCF8D2F9C2F0E94C0098111E5CF41
:101B20008D2F9C2F0E94DC09882309F18D2F9C2F7B
:101B30000E94E30961E20E9450178823B1F2B801C4
:101B40008D2F9C2F0E9464078D2F9C2F0E94E509EA
:101B50008823A9F3F8018081882309F49DCFDF91C0
:101B6000CF911F910F91FF90EF90DF90089584E146
:101B7000F80180830E9495178D2F9C2F0E94E30906
:101B8000EC018881882309F46DCF80E591E00E9403
:101B9000B417CE010E94B41765CFCF92DF92EF92B7
:101BA000FF920F931F93CF93DF936C018B01EA0198
:101BB000CB010E94E3090E94F4247C01BE01C8010C
:101BC0000E946407888181112CC06DE3C8010E94C6
:101BD000C709882321F1BE01C8010E9464078881DA
:101BE000882359F0C701DF91CF911F910F91FF908A
:101BF000EF90DF90CF900C946E23AE01B801C60138
:101C00000E94470C9B01AC0188818111EBCF8E01B2
:101C1000B701F601808591850E948306E3CF88E1B4
:101C20008883DF91CF911F910F91FF90EF90DF900C
:101C3000CF9008950F931F93CF93DF93CDB7DEB767
:101C400028970FB6F894DEBF0FBECDBF8B01BE0143
:101C50006F5F7F4F0E948314D8018C9389819A8192
:101C6000AB81BC81BC01CD0128960FB6F894DEBFD4
:101C70000FBECDBFDF91CF911F910F9108952F928D
:101C80003F924F925F926F927F928F929F92AF920C
:101C9000BF92CF92DF92EF92FF920F931F93CF9359
:101CA000DF93CDB7DEB72E970FB6F894DEBF0FBE29
:101CB000CDBF5C016B017A010E94F318882319F0F3
:101CC00087E0F7011DC1C6010E94DC09882309F4E1
:101CD00033C4C6010E94E3098C016EE10E945017D3
:101CE0008823F1F0A701B601C5010E94160D2E96BA
:101CF0000FB6F894DEBF0FBECDBFDF91CF911F911D
:101D00000F91FF90EF90DF90CF90BF90AF909F909A
:101D10008F907F906F905F904F903F902F9008959D
:101D20006BE571E0C8010E944425892BD9F26FE16F
:101D3000C8010E945017882309F44AC0B701C601A0
:101D40000E946407A701B601C5010E94470C2B0140
:101D50003C01B701C6010E94640745284628472870
:101D600031F0A701B601C5010E943F0EC0CFB701F7
:101D7000C6010E946407C6010E94E3098C01F701B5
:101D800080818111B4CFC6010E94E50981110AC08A
:101D900061E2C8010E945017811104C0F7018081DF
:101DA000882329F361E2C8010E945017882329F093
:101DB000B701C6010E946407D4CFC6010E94E5099D
:101DC000882309F494CFB701C6010E9464078FCF1E
:101DD00063E2C8010E945017882361F1B701C60170
:101DE0000E946407A701B601C5010E94470C3B0190
:101DF0004C01F701808181117ACF8E010F5F1F4F57
:101E00009E01245F3F4FA301B401F50180819181C0
:101E10000E944115882309F454C0F5018081918105
:101E20000E9443146C857D85680F791FC6010E944E
:101E3000EC095DCF64E2C8010E945017882309F4C1
:101E400051C0B701C6010E946407A701B601C501D0
:101E50000E94470C3B014C01F7018081811147CF63
:101E6000F501868D8930E0F58E010F5F1F4F9E01D1
:101E7000245F3F4FA301B401808191810E944115ED
:101E80008823F9F0F501068D10E0C6010E94F009E3
:101E9000F8013596EE0FFF1FEA0DFB1D918380833D
:101EA000F501808191810E9443146C857D85680FC6
:101EB000791FC6010E94EC09F501868D8F5F868F20
:101EC00016CF8BE00E94951780E591E00E94B41731
:101ED000B301C4010E94B9170E94D5178BE0F1CE5F
:101EE0008CE0EFCE65E2C8010E945017882351F0C4
:101EF000B701C6010E946407F501E05CFF4F81E075
:101F00008083F5CE66E2C8010E9450178823B1F0A5
:101F1000B701C6010E946407F501868D882361F030
:101F20008150868F90E00596880F991FA80EB91EE4
:101F3000F501608171817ACF8DE0C3CE67E2C8017F
:101F40000E945017882351F0B701C6010E94640710
:101F5000C6010E94E5098823B9F3C9CE68E2C80129
:101F60000E945017882309F492C0F50187AD843090
:101F700010F08EE0A6CEB701C6010E946407C6012C
:101F80000E94DC098823A1F0C6010E94E3090E9497
:101F9000F4244C01B701C6010E9464076DE3C60139
:101FA0000E94C709811106C086E1F701808311C034
:101FB00085E187CEB701C6010E946407A701B6017B
:101FC000C5010E94470C9B01AC01F7018081882369
:101FD000D9F0C4012E960FB6F894DEBF0FBECDBF68
:101FE000DF91CF911F910F91FF90EF90DF90CF90F5
:101FF000BF90AF909F908F907F906F905F904F9029
:102000003F902F900C946E238701B401F5018085D9
:1020100091850E948306F70180818111DACFC60184
:102020000E94DC09882389F1C6010E94E3096AE263
:102030000E945017882349F1B701C6010E94640726
:10204000A701B601C5010E94470C2B013C01F70115
:1020500080818111BECFF50107ADF8E00F9F8001AF
:1020600011240A0D1B1DF80181A292A2C6010E9433
:10207000F009F80190A3878F43A254A265A276A22B
:10208000F50187AD8F5F87AF32CE87E18ECF69E2F2
:10209000C8010E945017882309F44CC0F50187AD90
:1020A000082F10E0811102C08FE00BCEB701C601EE
:1020B0000E9464070150110983E0000F111F8A95E7
:1020C000E1F70A0D1B1DF80181A092A043A054A0C6
:1020D00065A076A0278C30A0AE014F5F5F4FB401A2
:1020E000F501808591850E94CD0689819A81AB8119
:1020F000BC81481659066A067B0649F4F80181A19D
:1021000092A10E946E23F50187AD8150BCCF9C0146
:10211000AD012F5F3F4F4F4F5F4F8701B401F50176
:10212000808591850E948306F7018081B10181112C
:10213000DECD7CCE6CE2C8010E9450178823D1F11D
:10214000B701C6010E946407F70180818111CFCDDC
:10215000C6010E94DC09882309F461C0C6010E94FF
:10216000E3094C011E86AE01425F5F4F6AE070E0FA
:10217000CE0101960E9404198E85863011F480E10B
:10218000A0CD8111B4CD1C86BE01645F7F4FCE010E
:1021900001960E941A0E9B01AC018C85882341F0A8
:1021A0008701B401F501808591850E9483060BCEDD
:1021B00081E187CD6BE2C8010E945017882371F03E
:1021C000B701C6010E946407F701808181118FCD9C
:1021D000A701B601C5010E94CD0D89CD6DE2C801F0
:1021E0000E9450178823E9F0B701C6010E946407D6
:1021F000F701808181117BCDC6010E94DC09882313
:1022000049F0C6010E94E3094C010E94DB179B01C3
:10221000AC01C6CF89E10E9495170E94D51789E1CC
:1022200050CD6FE2C8010E945017882399F1B70181
:10223000C6010E946407F7018081811158CDA70172
:10224000B601C5010E94470C8B01F7018081811105
:102250004ECD6CE2C6010E94C709811102C08AE11D
:1022600030CDB701C6010E946407F701808181115A
:102270003ECDC6010E94DC09882389F2C6010E9476
:10228000E3094C01C8010E94E217282F30E050E01A
:1022900040E086CF61E3C8010E945017882371F1A6
:1022A000B701C6010E946407F701808181111FCD2B
:1022B000A701B601C5010E94470C162FF7018081C6
:1022C000811115CD6CE2C6010E94C709882339F23D
:1022D000B701C6010E946407F7018081811107CD13
:1022E000C6010E94DC09882309F499CFC6010E9427
:1022F000E3094C01812F0E94E717C7CF64E3C801AF
:102300000E945017882379F1B701C6010E94640723
:10231000F70180818111EBCCA701B601C5010E94B4
:10232000470C162FF70180818111E1CC6CE2C601C8
:102330000E94C709882309F492CFB701C6010E9401
:102340006407F70180818111D2CCC6010E94DC09AB
:10235000882309F464CFC6010E94E3094C01812F50
:102360000E94ED1754CF65E3C8010E9450178823DF
:1023700081F1B701C6010E946407F70180818111D4
:10238000B6CCA701B601C5010E94470C162FF70174
:1023900080818111ACCC6CE2C6010E94C709882300
:1023A00009F45DCFB701C6010E946407F70180817F
:1023B00081119DCCA701B601C5010E94470CAB015C
:1023C000BC01F7018081811192CC812F0E94EA1714
:1023D0008ECC62E3C8010E945017882371F1B701C7
:1023E000C6010E946407F7018081811180CCA7019A
:1023F000B601C5010E94470C162FF701808181119B
:1024000076CC6CE2C6010E94C709882309F427CF65
:10241000B701C6010E946407F7018081811167CC72
:10242000A701B601C5010E94470CF7018081811107
:102430005ECC812F0E94E5175ACC63E3C8010E944D
:102440005017882371F1B701C6010E946407F70194
:10245000808181114CCCA701B601C5010E94470CB7
:10246000162FF7018081811142CC6CE2C6010E94D7
:10247000C709882309F4F3CEB701C6010E94640797
:10248000F7018081811133CCA701B601C5010E94FB
:10249000470CF701808181112ACC812F0E940218FC
:1024A00026CC60E3C8010E945017882371F1B70160
:1024B000C6010E946407F7018081811118CCA70131
:1024C000B601C5010E94470C8B01F7018081811183
:1024D0000ECC6CE2C6010E94C709882309F4BFCE66
:1024E000B701C6010E946407F70180818111FFCB0B
:1024F000A701B601C5010E94470CF7018081811137
:10250000F6CBC8010E94DF17F2CB6EE2C8010E9431
:102510005017882309F45CCEB701C6010E946407F6
:10252000F70180818111E3CBA701B601C5010E94AB
:10253000470C0E94DD17DBCB85E0C3CBBF92CF9267
:10254000DF92EF92FF920F931F93CF93DF930F923F
:10255000CDB7DEB78C01DC015E961C925E978D9143
:102560009C910E9443140E9436077C01F801168E4C
:1025700017AE6801F0E4CF0ED11CD6011C9219826F
:10258000BE016F5F7F4F0E94640784E0B82EC701D1
:102590000E94C009882309F455C0C7010E94AC09F4
:1025A000F8016483758386839783BE016F5F7F4FD5
:1025B000C7010E9464078981811107C0AE014F5F86
:1025C0005F4FB701C8010E943F0E4981B701C801A2
:1025D0000E94510A8981811117C0BE016F5F7F4F30
:1025E000C7010E9464074981B701C8010E94510ACE
:1025F0008981811109C0C7010E94A909811104C004
:10260000D6018C91882319F2C7010E9449076801FD
:10261000F12CE12C88E0C80ED11CD801DF968C91FA
:10262000DF978E151F0409F07CF4DF961C920F9043
:10263000DF91CF911F910F91FF90EF90DF90CF909E
:10264000BF900895B982C1CFF601818D928D0E940D
:102650006E23FFEFEF1AFF0ADDCFFC017187608761
:102660000895EF92FF920F931F93CF93DF930F92F2
:10267000CDB7DEB77C01CB01F701168E0E9436077D
:102680008C011982BE016F5F7F4F0E9464078981B0
:10269000811107C0AE014F5F5F4FB801C7010E94B3
:1026A0003F0E4981B801C7010E94510AC8010E942A
:1026B00049070F90DF91CF911F910F91FF90EF90FD
:1026C0000895FC01808591850C94E006CF93DF93FB
:1026D000D82FC92F86E090E00E94D222FC01892BDE
:1026E00031F0D083C1831582148213821282CF010C
:1026F000DF91CF9108950F931F93CF93DF93EC0158
:102700008B01892B11F40E94B424672BE1F384E040
:1027100090E00E94D222FC01138302831182108276
:10272000AA81BB81109799F0CD010D90BC91A02D8D
:102730001097D1F7DC01ED93FC938C819D8101967C
:102740009D838C83DF91CF911F910F9108959B837F
:102750008A83F3CFEF92FF920F931F93CF93DF9370
:102760008C01009711F40E94B424DC011296CD91E3
:10277000DC91209761F4F801138212821582148291
:10278000DF91CF911F910F91FF90EF900895D801A5
:10279000ED91FC918A819B810995E880F980CE01B9
:1027A0000E946E23E701E5CFCF93DF93EC01009702
:1027B00039F00E94AA13CE01DF91CF910C946E23C1
:1027C000DF91CF910895FC01CB01309711F40E9465
:1027D000B4242481358162177307C8F70280F3811E
:1027E000E02D30E020E0309719F02817390719F470
:1027F0008281938108950190F081E02D2F5F3F4FFA
:10280000F2CFFC01892B11F40E94B42484819581BC
:102810000895CF93DF9382E090E00E94D222EC01F2
:10282000892B31F089E491E00E94F4249983888314
:10283000CE01DF91CF9108950F931F93CF93DF9334
:10284000EC018B0188819981009711F00E946E2321
:10285000C8010E94F42499838883DF91CF911F914E
:102860000F910895CF93DF93EC01892B49F0888174
:1028700099810E946E23CE01DF91CF910C946E233B
:10288000DF91CF910895FC018081918108959F92FD
:10289000AF92BF92CF92DF92EF92FF920F931F936E
:1028A000CF93DF936C015B01042F952EFC01E08038
:1028B000F1806AE070E0C7010E943925EC0111E067
:1028C000209711F011110CC0DF91CF911F910F9142
:1028D000FF90EF90DF90CF90BF90AF909F900895C2
:1028E000202F392DAE01B701C601F5010995182F2A
:1028F0007E01FFEFEF1AFF0A6AE070E0C7010E9455
:102900003925EC01DDCFEF92FF920F931F93CF9308
:10291000DF9300D000D000D0CDB7DEB78C017B01B3
:10292000DC01EC910E2E000CFF0B1E821D8220E0BC
:1029300030E0A90180E0F097EA30F10528F46D81DC
:102940007E816B307105C1F4D7012D933D934D937A
:102950005C931397ED81FE813B9709F480E0269606
:102960000FB6F894DEBF0FBECDBFDF91CF911F91A0
:102970000F91FF90EF900895AAE0B0E00E94B82276
:102980009F01FF0F440B550B260F371F481F591F80
:10299000ED81FE813196FE83ED83E00FF11FE08132
:1029A0000E2E000CFF0B81E0C6CFCF92DF92EF928C
:1029B000FF920F931F93CF93DF9300D000D0CDB73A
:1029C000DEB77B016A018901BE016F5F7F4FC701DE
:1029D0000E948314882311F1F8014181528163819F
:1029E000748189819A81AB81BC81481759076A0734
:1029F0007B07A1F481E08083E186F286C386D486DA
:102A000080E00F900F900F900F90DF91CF911F916A
:102A10000F91FF90EF90DF90CF90089581E0F1CF7C
:102A20000F931F93CF93DF9300D000D0CDB7DEB7C5
:102A3000CB018901BE016F5F7F4F0E948314882301
:102A4000F1F089819A81AB81BC81F8014181528189
:102A500063817481481759076A077B0784F485836B
:102A60009683A783B08781E0808380E00F900F90EA
:102A70000F900F90DF91CF911F910F91089581E0FA
:102A8000F5CFAF92BF92CF92DF92EF92FF920F936A
:102A90001F93CF93DF93CDB7DEB72D970FB6F89482
:102AA000DEBF0FBECDBF7C0159014A835B836C83BF
:102AB0007D831982AE014F5F5F4F65ED74E10E9427
:102AC00047148981882391F0F701208131818A851B
:102AD0009B85821B930BF501918380838C859D855B
:102AE000821B930BF8019183808381E02D960FB6B2
:102AF000F894DEBF0FBECDBFDF91CF911F910F9134
:102B0000FF90EF90DF90CF90BF90AF900895AF927D
:102B1000BF92CF92DF92EF92FF920F931F93CF93CA
:102B2000DF9300D000D0CDB7DEB76C018E010F5F10
:102B30001F4F9E012D5F3F4F0E944115882309F4CE
:102B40004FC08B819C81E980FA80E81AF90AF6016E
:102B5000A080B180F50101900020E9F731978F0145
:102B60000A191B099C012E0D3F1D021713072CF497
:102B700098012E193F097901F5CFA801421B530B8B
:102B8000BC016F5F7F4F6E0D7F1D6A0D7B1D8A0D2F
:102B90009B1D0E941C253FEFE31AF30A0E191F0923
:102BA000F501E00FF11F1082B8016F5F7F4FF60152
:102BB000808191810E94F723F6019183808382E0D6
:102BC00090E00F900F900F900F90DF91CF911F9199
:102BD0000F91FF90EF90DF90CF90BF90AF9008954E
:102BE00081E090E0EECFAF92BF92CF92DF92EF9272
:102BF000FF920F931F93CF93DF936C01EB015A0168
:102C0000FC0180819181FC0101900020E9F731975E
:102C10008F01081B190BFA0101900020E9F7319789
:102C20007F01E41AF50A6017710714F0E801219793
:102C3000D7FF02C0D0E0C0E0B8016E0D7F1D6E5F0F
:102C40007F4F0E94F7239C01F60191838083A801A6
:102C50004C1B5D0B4F5F5F4FBC016C0F7D1FC701AD
:102C60008C0F9D1F820F931F0E941C25F6018081EF
:102C70009181A701B5018C0F9D1FDF91CF911F910D
:102C80000F91FF90EF90DF90CF90BF90AF900C949A
:102C90001C258F929F92AF92BF92CF92DF92EF92BC
:102CA000FF920F931F93CF93DF93CDB7DEB7659756
:102CB0000FB6F894DEBF0FBECDBF7C016B01BE0125
:102CC000625F7F4FC6010E948314882309F48FC07E
:102CD00060E270E0C6010E9439259C018E849F84C9
:102CE000A888B988892B41F469E070E0C6010E9488
:102CF00039259C01892B21F02C193D0937FF18C07B
:102D0000B501A401C7010E94871565960FB6F89416
:102D1000DEBF0FBECDBFDF91CF911F910F91FF900E
:102D2000EF90DF90CF90BF90AF909F908F900895DD
:102D30008E010C5E1F4F9801B501A401C7010E94CE
:102D400041154E855F8568897989882351F0C701CF
:102D50000E948715B601C7010E94491683E090E0E2
:102D6000D4CF19824A835B836C837D83AE014F5F2E
:102D70005F4F60E175E1C7010E9447148981882394
:102D8000F1F04E815F81688579858E010F5F1F4F5D
:102D90009E012E5E3F4FC7010E9441158823F9F224
:102DA0006A897B8942E651E0C7010E94F3156A896E
:102DB0007B89A601C7010E94F31585E0D0CFF701FA
:102DC000A081B181FD0101900020E9F731978F01C9
:102DD0000A1B1B0B42E651E0B801C7010E94F31524
:102DE000A601B801C7010E94F31584E0B8CF81E0C5
:102DF000B6CFCF93DF93EC01888199810E946E2337
:102E000089E491E00E94F42499838883DF91CF9133
:102E10000895DC01ED91FC91DF010D900020E9F7B0
:102E2000CD0101978E1B9F0B0895EF92FF921F9388
:102E3000CF93DF93EC01162F88819981FC010190DB
:102E40000020E9F731977F01E81AF90AB7016E5FB0
:102E50007F4F0E94F723FC0199838883892B59F0C7
:102E6000EE0DFF1D1083118281E0DF91CF911F9144
:102E7000FF90EF90089589E491E00E94F4249983F3
:102E8000888380E0F2CFE82FCB01F0E0EE0FFF1F48
:102E9000E455FF4F659174914150550B0C94E52416
:102EA000CF92DF92EF92FF921F93CF93DF93CDB734
:102EB000DEB7A9970FB6F894DEBF0FBECDBFF82ED0
:102EC000192F862F48E2BE016F5F7F4F0E94431784
:102ED000CF2CD12ECE0101967C01F60181916F019C
:102EE000F70111917F01882379F0112359F0082E01
:102EF000000C990B0E94DD24212F110F330B821738
:102F0000930759F380E003C081E01111FBCFA9962C
:102F10000FB6F894DEBF0FBECDBFDF91CF911F91EA
:102F2000FF90EF90DF90CF900895CF93DF93CDB7D0
:102F3000DEB7A9970FB6F894DEBF0FBECDBF48E24B
:102F4000BE016F5F7F4F0E944317CE0101960E9422
:102F5000B417A9960FB6F894DEBF0FBECDBFDF91B0
:102F6000CF9108950C942B28BC0183E492E00C943B
:102F7000A4199F938F937F936F938DE591E09F9317
:102F80008F9387EE91E09F938F930E948A258DB750
:102F90009EB708960FB6F8949EBF0FBE8DBF67EE22
:102FA00071E083E492E00C94A41961E671E083E49B
:102FB00092E00C94A4190C942F1F0C94821FFC0116
:102FC00060830895FC01808108950C944C210E9437
:102FD0007A210895BA010C94CD21CF93DF9300D0CC
:102FE00000D0CDB7DEB70E94A3219C01990F440BFE
:102FF000550BCA01B9010F900F900F900F90DF9100
:10300000CF9108950C941021CF93DF9300D000D07E
:1030100000D0CDB7DEB787E40E94951760E074E07A
:1030200080E090E00E94B91781E591E00E94B4171A
:1030300085E40E9495170E94D51789E40E94951790
:103040002091A9023091AA02CE01019621153105E5
:1030500001F58D5A92409A83898389819A819C01D6
:10306000990F440B550BCA01B9010E94B91781E5AC
:1030700091E00E94B41785E40E9495170E94D5172D
:1030800026960FB6F894DEBF0FBECDBFDF91CF916D
:103090000895821B930BE091AB02F091AC0230E0FB
:1030A00020E0309751F02E5F3F4F40815181240F37
:1030B000351F0280F381E02DF4CF820F931FCBCF19
:1030C000EF92FF920F931F93CF93DF93D82FC92FC7
:1030D0000E9409177C018DEFE81683E0F80614F5CD
:1030E00060E590E080E00E9433286DE481E090E0AC
:1030F0000E94332862E482E090E00E9433288D2F02
:103100009C2F0E9443148C01D0E0C0E0EC16FD0619
:10311000B4F0F80161918F01CE0103960E9433282B
:103120002196F4CF8CE10E9495170E94D51780E07C
:10313000DF91CF911F910F91FF90EF90089581E063
:10314000F7CFEF92FF921F93CF93DF93182FD92FD2
:1031500090E080E00E94B2178035C9F581E090E0F0
:103160000E94B2178D3499F582E090E00E94B21768
:10317000823469F5812F9D2F0E94F91683E090E03B
:103180000E94B217682FC1E083E0E82EF12C66237D
:1031900079F0CC2381F08FEFE81AF80A812F9D2F68
:1031A0000E941517C82FC7010E94B217682FEFCFD2
:1031B00081E0C11106C083E00E9495170E94D517D7
:1031C00080E0DF91CF911F91FF90EF9008958BE108
:1031D000F3CF40E051EE60E070E083E492E00C94C5
:1031E000CC1E0C947B0483E492E00E940A1E892B7F
:1031F00049F083E492E00E941A1E9C0181E0233092
:10320000310509F080E008958F929F92AF92BF92AE
:10321000CF92DF92EF92FF920F931F93CF93DF93A2
:103220007C015B016A01FA01108283E492E00E9452
:103230000A1E892BD1F383E492E00E941A1EEC014E
:1032400010E000E0F1E0AF1AB1081C161D06DCF535
:10325000CD30D105C1F1C330D105A9F1C830D105B8
:1032600001F50115110589F00150110968E083E4A9
:1032700092E00E94DB1D60E283E492E00E94DB1D8D
:1032800068E083E492E00E94DB1D83E492E00E9408
:103290000A1E892BD1F383E492E00E941A1EEC01EE
:1032A000D4CF0A151B058CF748018FEF881A980AAE
:1032B000F701E00FF11FC0836C2F83E492E00E94BE
:1032C000DB1D8401E2CF0E0D1F1DF80110820E944C
:1032D000D517239719F487E0F6018083DF91CF910A
:1032E0001F910F91FF90EF90DF90CF90BF90AF9024
:1032F0009F908F90089580E090E0892B49F080E0C6
:1033000090E0892B29F00E94000081110C940000AC
:103310000895CF93DF93EC01DB01AB2B81F0FB0130
:1033200001900020E9F73197AF01461B570BE88168
:10333000F9810280F381E02DDF91CF91099490E033
:1033400080E0DF91CF9108950C948919615030F09D
:10335000FC018091F1008193CF01F8CF289884E699
:1033600080934102089540913C0250913D0220918A
:103370003A0230913B0242175307B4F49091E800AF
:103380009570E1F39091E80092FD19C08093F100EF
:1033900080913C0290913D0201968F739927892B71
:1033A00019F48EEF8093E80080913C0290913D02E9
:1033B000019690933D0280933C0281E0089580E065
:1033C0000895EF92FF920F931F93CF93DF93F82E00
:1033D000192FE62E042F81E0860F880F0E94B31963
:1033E00083E00E94B319CF2DD12FEC0EFD2EF11CDE
:1033F000CE15DF05B9F007FF13C0FE0184910E94CE
:10340000B319182F80E00E94B319812321968111EE
:10341000EFCFDF91CF911F910F91FF90EF90089523
:103420008881EDCF81E0F5CF8091D70081608093D6
:10343000D70080EA8093D80089B5806189BD89B5BD
:10344000826089BD09B400FEFDCF61E070E080E0DC
:1034500090E00E94821F8091D8008F7C80618093D1
:10346000D8008091E000807F8093E0000895CF93A2
:10347000DF930F92CDB7DEB71982CE0101960E947D
:103480003D1E0E94BF20BE016F5F7F4F0E94332010
:1034900089810F90DF91CF9108952FB7FC01208390
:1034A000F89467706093E9000895CF93DF930F92CB
:1034B000CDB7DEB7682FCE0101960E944D1A8091DC
:1034C000F20099819FBF0F90DF91CF910895EF9205
:1034D000FF920F931F93CF93DF930F92CDB7DEB779
:1034E0007B018A0190914002992371F157FD2CC014
:1034F000682FCE0101960E944D1A8091F20090E053
:10350000081719070CF4C801282F44E6215048F089
:10351000F7012898409341023091F10031937F01E7
:10352000F5CF009739F02091F200211103C02BE66E
:103530002093E80029812FBF0F90DF91CF911F9139
:103540000F91FF90EF9008958FEF9FEFF5CFCF93FE
:10355000DF930F92CDB7DEB741E050E0BE016F5F61
:103560007F4F0E94671A019731F4898190E00F9094
:10357000DF91CF9108958FEF9FEFF9CFCF93DF9336
:103580000F92CDB7DEB7682FCE0101960E944D1A7B
:103590009091E800892F807295FF04C09091F2000D
:1035A00080E4891B99819FBF0F90DF91CF9108958F
:1035B0005F926F927F928F929F92AF92BF92CF92C3
:1035C000DF92EF92FF920F931F93CF93DF930F92AF
:1035D000CDB7DEB7082F6B01B42EA52E8091400227
:1035E000811113C08FEF9FEF0F90DF91CF911F914B
:1035F0000F91FF90EF90DF90CF90BF90AF909F9092
:103600008F907F906F905F90089580913E0280FF31
:1036100005C08091E00082608093E000EB2CFA2CE2
:10362000912C8AEF882E802F8072682E802F8074D4
:10363000582E9AE3792EE114F10419F4992009F433
:1036400060C0802F0E94BE1A182F81110AC08A9470
:10365000882041F261E070E080E090E00E94821FEB
:10366000EACF8E151F0411F00CF01E2D602FCE0135
:1036700001960E944D1A8091E80085FD03C0898162
:103680008FBFD9CF212F30E0E21AF30A662029F04C
:10369000115060F01092F100FBCF9C2D8D2D07FF93
:1036A00010C0F601115040F4C20ED31E992099F0BB
:1036B0007092E800912CE3CF84918093F1003196D1
:1036C000F1CF115088F3E92FF82F81918093F10009
:1036D0009E2F8F2FF6CF8091E80085FD08C0709255
:1036E000E80099249394E114F10449F2E3CFE11442
:1036F000F10409F0C4CF552009F4C1CF7092E8005D
:10370000BECF5D9884E6809342028B2D9A2D6CCFBC
:103710001092E90010923D0210923C0290933B02FD
:1037200080933A020895CF92DF92FF920F931F93F6
:10373000CF93DF93F82E8A01EB016B01C40ED51EE7
:10374000CC15DD0559F0F7FE12C0FE0184910E94F0
:10375000B31921968111F4CF0FEF1FEFC801DF914C
:10376000CF911F910F91FF90DF90CF9008958881A6
:10377000EECFBF92CF92DF92EF92FF920F931F9303
:10378000CF93DF936C018B01EB019BEFB92E209758
:10379000C1F07E01C134D1051CF080E4E82EF12C8B
:1037A0008091E80082FFFCCFC8018C1B9D0B6E2D21
:1037B0008C0D9D1D0E94A619B092E800CE19DF095C
:1037C000E6CFC801DF91CF911F910F91FF90EF904D
:1037D000DF90CF90BF9008951F920F920FB60F9277
:1037E0001124EF92FF920F931F932F933F934F93C8
:1037F0005F936F937F938F939F93AF93BF93EF9359
:10380000FF93CF93DF93CDB7DEB76C97DEBFCDBF0D
:103810001092E9008091E80083FF21C068E0CE01AA
:1038200045960E94A61982EF8093E8008D8987FF54
:1038300033C09091E80090FFFCCF982F907609F06C
:1038400001C19E8991112FC0803851F580913F02AE
:103850008093F1001092F1008EEF8093E8006C9657
:103860000FB6F894DEBF0FBECDBFDF91CF91FF91B1
:10387000EF91BF91AF919F918F917F916F915F91E8
:103880004F913F912F911F910F91FF90EF900F90CB
:103890000FBE0F901F9018959EEF9093E800CDCF2C
:1038A0001092F100D7CF2F89388D913059F48111C2
:1038B000D3CF2130310581F680913F028D7F8093F7
:1038C0003F02CACF933049F48111C6CF2130310570
:1038D00019F680913F028260F2CF953049F48091D1
:1038E000E80080FFFCCF8F8980688093E300B4CF2D
:1038F000963009F078C0188DEB8CFC8C123039F5BD
:1039000090E080E00E94881B0E94371A1F8299E095
:1039100099831A8391E09E8390EA98879AEF99871A
:1039200020913C0230913D02275F3F4F3C832B8327
:103930008D83C7010E94881B49E050E0BE016F5F84
:103940007F4F80E00E94931B0E94371A85CFC701EA
:103950000E94881B0E94BF20BE016B5E7F4F0E94A9
:103960005D20009731F00CF077CF81E28093EB007F
:1039700076CF113061F11330C1F78F89882381F13F
:10398000823049F440E86CE083EC96E00E94E11953
:10399000882359F361CF813029F440E867E08BEB4D
:1039A00096E0F4CF833009F70E94BF208E010F5FAD
:1039B0001F4FB8010E947E20F80101900020E9F716
:1039C0003197BF01601B710B40E0C801DFCF69EA8E
:1039D00076E0FB01449150E080E80E94931B3CCFCD
:1039E00060ED76E0F6CF973009F4BFCF983021F440
:1039F00081E08093F10030CF993009F02DCF8370B2
:103A000009F0B3CFE7E0F1E081E031E096E3219106
:103A1000211109C08EE78093EA001092EA008F8995
:103A20008093400219CF8093E9003093EB00DF01CF
:103A300011972C912093EC009093ED008F5F8730CD
:103A400031F7E8CF8B8D9C8D0E94881B898D811169
:103A500005C0CE0145960E94481E9ACF0E94BF2005
:103A6000BE016B5E7F4F0E949F2092CF8093E90042
:103A70008091F200882319F08AE38093E80008958A
:103A80001F920F920FB60F9211242F933F934F93D3
:103A90005F936F937F938F939F93AF93BF93CF93D6
:103AA000EF93FF93C091E1008091E100837F8093C9
:103AB000E100C3FF0FC01092E90081E08093EB00AA
:103AC0001092EC0082E38093ED001092400288E0B7
:103AD0008093F000C2FF1BC083E00E94361D8091DE
:103AE0004202882341F08091420281508093420239
:103AF000811101C05D9A80914102882341F080913B
:103B00004102815080934102811101C0289AC4FF73
:103B100023C08091E2008E7E81608093E2008091DC
:103B2000E1008F7E8093E10080913E028E7E806175
:103B300080933E02FF91EF91CF91BF91AF919F9102
:103B40008F917F916F915F914F913F912F910F9046
:103B50000FBE0F901F901895C0FFECCF8091E20030
:103B60008E7E80618093E2008091E1008E7E809362
:103B7000E10080913E028E7E8160DACF1092400299
:103B800010923F0210923E020E94141A8091E100AE
:103B90008E7E8093E1008DE08093E200559A209A1A
:103BA000EEEFFFE7859194918B3F9C4D19F481E0F6
:103BB000809393020895CF93DF930F92CDB7DEB732
:103BC000DC016983ED91FC910280F381E02D41E0FD
:103BD00050E0BE016F5F7F4F09950F90DF91CF914D
:103BE0000895CF93DF93EC018C859D8597FF05C0E9
:103BF00082E00E94A71A9D878C878C859D85DF9126
:103C0000CF91089583E00E94BE1A90E0089583E06A
:103C10000C94361DFC018485958597FD06C082E0D5
:103C20000E94551A90E00196089582E00E94551A6C
:103C300090E00895FC018485958597FD05C02FEFE0
:103C40003FEF35872487089582E00C94A71ACF931D
:103C5000DF93EC0180911801882331F083E00E940A
:103C6000D81A1816190634F081E090E09B838A83F5
:103C700080E090E0DF91CF910895FC0180818E5F1C
:103C8000808342E450E064ED76E080E80C94931B7E
:103C9000FC0181819081913A61F4813209F073C015
:103CA00047E050E061E171E080E00E94931B81E019
:103CB0000895913209F067C0833269F4828193815B
:103CC000B0E0A0E080930D0190930E01A0930F014E
:103CD000B0931001ECCF803209F057C067E070E07C
:103CE00081E191E00E94B91B80919302EEEFFAE02E
:103CF000811102C0E0E0F8E0809111019091120181
:103D0000A0911301B0911401803B9440A105B1052D
:103D1000B9F48091180180FD13C0EE3F8AE0F807E6
:103D200021F587E797E79183808388E19BE00FB6D1
:103D3000F894A895809360000FBE90936000B7CF71
:103D40000FB6F894A8958091600088618093600018
:103D5000109260000FBEA895EE3F2AE0F20761F4D2
:103D60001092FF0A1092FE0AA2CF80819181909357
:103D7000FF0A8093FE0AD5CF8091FE0A9091FF0A38
:103D80009183808394CF80E00895823209F08FCFB1
:103D9000828180931801A8CF2FEF3FEFFC01358778
:103DA00024870895E3E4F2E01382128288EE93E020
:103DB000A0E0B0E084839583A683B78388E691E092
:103DC000918380838FEF9FEF9587848708951F925B
:103DD0001FB61F9211242F933F938F939F93AF93FE
:103DE000BF938091950290919602A0919702B09115
:103DF00098023091940223E0230F2D3750F501965D
:103E0000A11DB11D20939402809395029093960278
:103E1000A0939702B09398028091990290919A0290
:103E2000A0919B02B0919C020196A11DB11D8093AF
:103E3000990290939A02A0939B02B0939C02BF9127
:103E4000AF919F918F913F912F911F901FBE1F9017
:103E5000189526E8230F0296A11DB11DD3CFCF934D
:103E6000DF9300D000D0CDB7DEB78FB7F8942091A4
:103E700095023091960240919702509198022983C1
:103E80003A834B835C838FBF69817A818B819C816C
:103E90000F900F900F900F90DF91CF910895CF93D7
:103EA000DF9300D000D0CDB7DEB73FB7F894809154
:103EB000990290919A02A0919B02B0919C0226B522
:103EC000A89B05C02F3F19F00196A11DB11D3FBF52
:103ED000BA2FA92F982F8827820F911DA11DB11DE0
:103EE0009C01AD0162E0220F331F441F551F6A95EC
:103EF000D1F7CA01B9010F900F900F900F90DF9189
:103F0000CF9108958F929F92AF92BF92CF92DF92FE
:103F1000EF92FF92CF93DF9300D000D0CDB7DEB702
:103F20006B017C010E944F1F4B015C01C114D10445
:103F3000E104F104F9F00E94D3200E944F1FDC013C
:103F4000CB0188199909AA09BB09883E9340A105AC
:103F5000B10560F321E0C21AD108E108F10888EE4A
:103F6000880E83E0981EA11CB11CC114D104E10489
:103F7000F10419F70F900F900F900F90DF91CF91F0
:103F8000FF90EF90DF90CF90BF90AF909F908F9079
:103F90000895789484B5826084BD84B5816084BDC1
:103FA00085B5826085BD85B5816085BDEEE6F0E0B2
:103FB000808181608083E1E8F0E01082808182600E
:103FC0008083808181608083E0E8F0E0808181608F
:103FD0008083E1E9F0E0808182608083808181607C
:103FE0008083E0E9F0E0808181608083E1ECF0E0B3
:103FF0008081846080838081826080838081816011
:104000008083E3ECF0E0808181608083E0ECF0E08D
:10401000808182608083E2ECF0E080818160808337
:10402000EAE7F0E080818460808380818260808321
:104030008081816080838081806880830895089575
:104040000E94C91F0E941F2089E392E00E94BE1DAA
:104050000E94E918CBE7D9E10E94F1182097E1F31B
:104060000E947B19F9CFEF92FF920F931F93CF938A
:10407000DF93F62EE72EFC01C281D38110E000E031
:10408000209799F0E881F9810280F381E02D6F2D6E
:104090007E2DCE01099597FD06C0080F191F0884D3
:1040A000D985C02DEDCF0FEF1FEFC801DF91CF9164
:1040B0001F910F91FF90EF9008950F931F93CF934F
:1040C000DF93162F072FFC01C281D381209779F04F
:1040D000E881F9810480F581E02D612F702FCE01F8
:1040E0000995009731F40884D985C02DEFCF90E071
:1040F00080E0DF91CF911F910F9108950F931F934F
:10410000CF93DF93EB01DC0112960D911C91011509
:10411000110579F0D801ED91FC910680F781E02D31
:10412000BE01C8010995C80FD11DF8010085118590
:10413000EECF1882DF91CF911F910F9108950F93C9
:104140001F93CF93DF93162F072FFC01C281D381DA
:10415000209779F0E881F9810190F081E02D612FBD
:10416000702FCE010995811105C00884D985C02D15
:10417000EFCF80E0DF91CF911F910F910895809153
:104180009D0281110DC082E08093A50284E080939E
:10419000A6021092A8021092A70281E080939D02CD
:1041A00085EA92E00895089581508F30C0F5E82F98
:1041B000F0E0E658F74D0C94B222809180008F77A2
:1041C000809380000895809180008F7DF9CF809149
:1041D0008000877FF5CF84B58F7784BD089584B53F
:1041E0008F7DFBCF809190008F7780939000089512
:1041F000809190008F7DF9CF80919000877FF5CFDF
:104200008091C0008F778093C00008958091C00096
:104210008F7DF9CF8091C200877F8093C20008957F
:10422000CF93DF9390E0FC01E05CF84F2491815A3A
:10423000984FFC0184918823C9F090E0880F991F62
:10424000FC01E656F84FA591B491FC01E457F84FF4
:10425000C591D49161110DC09FB7F8948C912095B0
:1042600082238C938881282328839FBFDF91CF915D
:104270000895623051F49FB7F8943C91822F809555
:1042800083238C93E8812E2BEFCF8FB7F894EC919A
:104290002E2B2C938FBFEACF1F93CF93DF93162F34
:1042A000282F30E0F901EE5DF84F8491F901E05CD0
:1042B000F84FD491F901E15AF84FC491CC23A1F001
:1042C00081110E94D420EC2FF0E0EE0FFF1FE45785
:1042D000F84FA591B4918FB7F894EC91111108C0E3
:1042E000D095DE23DC938FBFDF91CF911F9108958E
:1042F000DE2BF8CFCF93DF93282F30E0F901EE5D6E
:10430000F84F8491F901E05CF84FD491F901E15A3A
:10431000F84FC491CC23A1F081110E94D420EC2F3E
:10432000F0E0EE0FFF1FE258F84FA591B491EC9129
:10433000ED2381E090E009F480E0DF91CF910895D2
:1043400080E090E0FACF823108F08251E82FF0E06F
:10435000EA5EF84FE49190917B008E2F880F880FD2
:1043600080729F7D892B80937B008091190120E4CE
:10437000829FC0011124E770E82BE0937C008091BC
:104380007A00806480937A0080917A0086FDFCCF69
:10439000809178009091790008951F93CF93DF93D7
:1043A000182FEB0161E00E941021209739F460E0A2
:1043B000812FDF91CF911F910C944C21CF3FD105DC
:1043C00011F461E0F5CFE12FF0E0EE5DF84FE491FC
:1043D000E150EF3008F070C0F0E0E757F74D0C9473
:1043E000B22284B5806884BDC7BDDF91CF911F9193
:1043F000089584B5806284BDC8BDF7CF80918000E8
:10440000806880938000D0938900C0938800EDCFAE
:1044100080918000806280938000D0938B00C09355
:104420008A00E3CF80918000886080938000D093E1
:104430008D00C0938C00D9CF8091900080688093CC
:104440009000D0939900C0939800CFCF80919000B6
:10445000806280939000D0939B00C0939A00C5CF58
:1044600080919000886080939000D0939D00C093CD
:104470009C00BBCF8091C00080688093C000809179
:10448000C0008F7B8093C000C093CF00AECF8091DF
:10449000C00080628093C000C093D000A6CF8091FE
:1044A000C20088608093C2008091C2008B7F80939D
:1044B000C200C093D20099CFC038D1050CF477CF99
:1044C00080CFDB018F939F930E94B822BF91AF9161
:1044D000A29F800D911DA39F900DB29F900D11245E
:1044E0000895A1E21A2EAA1BBB1BFD010DC0AA1F35
:1044F000BB1FEE1FFF1FA217B307E407F50720F04D
:10450000A21BB30BE40BF50B661F771F881F991FC7
:104510001A9469F760957095809590959B01AC0110
:10452000BD01CF010895052E97FB1EF400940E9453
:10453000AA2257FD07D00E94712207FC03D04EF437
:104540000C94AA2250954095309521953F4F4F4F9E
:104550005F4F089590958095709561957F4F8F4F2F
:104560009F4F0895EE0FFF1F0590F491E02D0994E1
:104570000E94C322A59F900DB49F900DA49F800D13
:10458000911D11240895A29FB001B39FC001A39F64
:10459000700D811D1124911DB29F700D811D11247C
:1045A000911D08950F931F93CF93DF938230910550
:1045B00010F482E090E0E091AB02F091AC0230E0C8
:1045C00020E0B0E0A0E0309799F42115310509F41E
:1045D0004AC0281B390B24303105D8F58A819B81CC
:1045E0006115710589F1FB0193838283FE0111C07E
:1045F000408151810281138148175907E0F0481723
:10460000590799F4109761F012960C93129713962C
:104610001C933296CF01DF91CF911F910F91089596
:104620000093AB021093AC02F4CF2115310551F089
:104630004217530738F0A901DB019A01BD01DF01E0
:10464000F801C1CFEF01F9CF9093AC028093AB0298
:10465000CDCFFE01E20FF31F8193919322503109D8
:1046600039832883D7CF2091A9023091AA02232B26
:1046700041F420910201309103013093AA0220936A
:10468000A90220910001309101012115310541F469
:104690002DB73EB74091040150910501241B350B05
:1046A000E091A902F091AA02E217F307A0F42E1BF1
:1046B0003F0B2817390778F0AC014E5F5F4F241786
:1046C000350748F04E0F5F1F5093AA024093A9028E
:1046D000819391939FCFF0E0E0E09CCFCF93DF9365
:1046E0000097E9F0FC01329713821282A091AB028D
:1046F000B091AC02ED0130E020E01097A1F42081F0
:104700003181820F931F2091A9023091AA022817AC
:10471000390709F061C0F093AA02E093A902DF9182
:10472000CF910895EA01CE17DF07E8F54A815B8152
:104730009E0141155105B1F7E901FB83EA834991D7
:104740005991C40FD51FEC17FD0761F48081918149
:104750000296840F951FE901998388838281938152
:104760009B838A83F0E0E0E012968D919C911397F1
:104770000097B9F52D913C911197CD010296820FCA
:10478000931F2091A9023091AA022817390739F600
:10479000309751F51092AC021092AB02B093AA027E
:1047A000A093A902BCCFD383C28340815181840FDF
:1047B000951FC817D90761F44E5F5F4F88819981B3
:1047C000480F591F518340838A819B819383828341
:1047D0002115310509F0B0CFF093AC02E093AB02A4
:1047E0009ECFFD01DC01C0CF13821282D7CFB0E093
:1047F000A0E0EDEFF3E20C9443288C01009751F414
:10480000CB010E94D2228C01C801CDB7DEB7E0E116
:104810000C945F28FC01E60FF71F9C012250310920
:10482000E217F30708F49DC0D901CD91DC911197EF
:10483000C617D70798F0C530D10530F3CE010497DD
:104840008617970708F3C61BD70B2297C193D193FE
:104850006D937C93CF010E946E23D6CF5B01AC1A7F
:10486000BD0A4C018C0E9D1EA091AB02B091AC0212
:10487000512C412CF12CE12C109731F58091A9029B
:104880009091AA028815990509F05CC04616570652
:1048900008F058C08091000190910101009741F407
:1048A0008DB79EB74091040150910501841B950B73
:1048B000E817F90708F055C0F093AA02E093A9029F
:1048C000F90171836083A0CF8D919C91119712960D
:1048D0006C90129713967C901397A815B90559F50B
:1048E0006C0142E0C40ED11CCA14DB0420F1AC01FF
:1048F0004A195B09DA011296159780F06282738279
:1049000051834083D9016D937C93E114F10471F0DC
:10491000D7011396FC93EE93129776CF22968C0FC5
:104920009D1FF90191838083F301EFCFF093AC02D7
:10493000E093AB0269CF4816590608F42C017D01BB
:10494000D3019ACFCB010E94D2227C01009749F07B
:10495000AE01B8010E941325C8010E946E23870191
:1049600053CF10E000E050CF81E090E0F8940C9439
:10497000782891110C94C32480538A5018F0865CD7
:104980000C94C924089599278827089585FD0C94CF
:10499000C324806291110C94C32481568A51D8F7A4
:1049A000089591110C94C32480538A5028F0865C9A
:1049B000806281568650B0F7089591110895815410
:1049C0008A5108F4805E855A0895FB01DC0141504C
:1049D000504048F005900D920020C9F701C01D928B
:1049E00041505040E0F708950F931F93CF93DF930A
:1049F0008C01FC0101900020E9F7CF01801B910B95
:104A00000E94D222EC01009719F0B8010E944D25B6
:104A1000CE01DF91CF911F910F91089546E751E0AC
:104A20000E9463250895FB01DC0102C001900D92F4
:104A300041505040D8F708956817790768F4FB0192
:104A4000DC01E40FF51FA40FB51F02C002900E9207
:104A500041505040D8F708950C941325FB01DC0118
:104A60000D900020E9F7119701900D920020E1F7D9
:104A70000895FC018191861721F08823D9F79927A1
:104A800008953197CF010895FB01DC018D910190CC
:104A900080190110D9F3990B0895FB01DC010190F5
:104AA0000D920020E1F70895FB01DC0141505040D8
:104AB00048F001900D920020C9F701C01D924150AD
:104AC0005040E0F70895FA01A191B081009719F4E0
:104AD0001097E1F0CD01DC01CD010D90002011F423
:104AE000C00113C0FB012191222319F02015D9F731
:104AF000F3CFFB012191201519F41E92119606C0E7
:104B00002223C1F70D900020A1F7D001FA01A19353
:104B1000B0830895AEE0B0E0E0E9F5E20C944F28F0
:104B20000D891E8986E08C831A8309838FEF9FE7A6
:104B30009E838D83AE01475E5F4F6F89788DCE0176
:104B400001960E94AD252F813885020F131FF801B1
:104B500010822E96E4E00C946B28ABE0B0E0E3EB1F
:104B6000F5E20C9441287C013B018A01FC0117828B
:104B70001682838181FFC8C1CE0101965C01F701D5
:104B80009381F30193FD859193FF81913F018823E8
:104B900009F453C1853239F493FD859193FF8191D6
:104BA0003F01853229F4B70190E00E949D27E7CFAD
:104BB000912C212C312CFFE1F31538F08B3211F1BF
:104BC00090F4803209F1833229F137FC3CC020EDAA
:104BD000280F2A3050F536FE20C08AE0989E200D1E
:104BE0001124922E06C08D3291F0803371F76894B3
:104BF00030F8F30193FD859193FF81913F0181117D
:104C0000DACF21C0689431F8689432F8F2CF689412
:104C100033F8EFCF689434F8ECCFEAE02E9E200D05
:104C20001124222E689435F8E4CF8E3229F436FC14
:104C300004C1689436F8DDCF8C3619F4689437F8DF
:104C4000D8CF8836B1F2982F9F7D95549330E0F0FD
:104C50008336A1F18337C1F1833509F063C02801A0
:104C6000F2E04F0E511CF801C080D180692D70E038
:104C700036FC02C06FEF7FEFC6010E9487274C0110
:104C8000689437F882010AC00C5F1F4FFFE3F98375
:104C900088248394912C6501E89437F833FE2DC065
:104CA000522C8114910471F5552009F468CFB70195
:104CB00080E290E00E949D275A94F6CFF80180810F
:104CC00089830E5F1F4FE4CF2801F2E04F0E511C85
:104CD000F801C080D180692D70E036FC02C06FEF12
:104CE0007FEFC6010E9492274C018201D5CFB70108
:104CF00080E290E00E949D272A942814190409F06C
:104D0000B0F7CECFF60137FC859137FE81916F0168
:104D1000B70190E00E949D2751105A94F1E08F1A3C
:104D20009108BFCF843619F0893609F077C0F801B1
:104D300037FE6BC060817181828193810C5F1F4F50
:104D4000F32DFF763F2E97FF09C0909580957095C3
:104D500061957F4F8F4F9F4F689437F82AE030E07E
:104D6000A5010E94CD27C82ECA188C2C432C36FED4
:104D70000CC0E89440F8C91440F434FE05C032FC7D
:104D800003C0F32DFE7E4F2E892C44FE95C0FE01FC
:104D9000EC0DF11D8081803309F087C0242D297E20
:104DA000422E842D8870582E43FC95C040FE8FC043
:104DB0009C2C821418F42C0C922C981844FE91C050
:104DC000B70180E390E00E949D2742FE09C088E77A
:104DD00090E041FE02C088E590E0B7010E949D2767
:104DE000C91408F48AC0CA94D12C9FEFC91AD90AF1
:104DF000CA0CDB1CF60182916F01B70190E00E94A2
:104E00009D27AC14BD04B1F74FCF60817181072E8F
:104E1000000C880B990B0E5F1F4F92CFD32CE89498
:104E2000D4F82AE030E0853739F1232D297FD22EBE
:104E30008F3601F148F48835A9F0F7018681978112
:104E40002B96E2E10C945D28803749F08837A9F76A
:104E5000D4FE02C06894D2F820E130E00DC068941E
:104E6000D4F8F6CF34FE03C0822F8660D82E20E11E
:104E700032E002C028E030E0F801D7FE0FC06081C8
:104E80007181828193810C5F1F4FA5010E94CD2704
:104E9000C82ECA183D2CE89437F867CF608171811D
:104EA00090E080E00E5F1F4FF0CF42FC02C0839481
:104EB00078CF8394839475CF842D867809F471CF4D
:104EC000F6CFB70180E290E00E949D278394821480
:104ED000C0F3512C73CF522C5818821408F46ECFA3
:104EE000F8CF842D867809F47BCF8BE241FE80E2F7
:104EF00047FC8DE2B70190E071CFB70180E390E00D
:104F00000E949D279A946CCF8FEF9FEF99CFFC0161
:104F10000590615070400110D8F7809590958E0FE4
:104F20009F1F0895FC016150704001900110D8F757
:104F3000809590958E0F9F1F08950F931F93CF9389
:104F4000DF93182F092FEB018B8181FD09C01FEF23
:104F50000FEF812F902FDF91CF911F910F91089527
:104F600082FF14C02E813F818C819D8128173907D3
:104F70003CF4E881F981CF010196998388831083FD
:104F80008E819F8101969F838E83E3CFE885F9858B
:104F9000812F0995892BA1F3DACFFA01AA272830AE
:104FA00051F1203181F1E8946F936E7F6E5F7F4FF6
:104FB0008F4F9F4FAF4FB1E03ED0B4E03CD0670F72
:104FC000781F891F9A1FA11D680F791F8A1F911DC5
:104FD000A11D6A0F711D811D911DA11D20D009F415
:104FE00068943F912AE0269F11243019305D319357
:104FF000DEF6CF010895462F4770405D4193B3E040
:105000000FD0C9F7F6CF462F4F70405D4A3318F0E6
:10501000495D31FD4052419302D0A9F7EACFB4E097
:10502000A6959795879577956795BA95C9F700974F
:105030006105710508959B01AC010A2E06945795F0
:10504000479537952795BA95C9F7620F731F841F47
:10505000951FA01D0895F999FECF92BD81BDF89AC4
:10506000992780B50895262FF999FECF1FBA92BDD2
:1050700081BD20BD0FB6F894FA9AF99A0FBE019639
:1050800008952F923F924F925F926F927F928F92EC
:105090009F92AF92BF92CF92DF92EF92FF920F93C7
:1050A0001F93CF93DF93CDB7DEB7CA1BDB0B0FB6D1
:1050B000F894DEBF0FBECDBF09942A88398848888E
:1050C0005F846E847D848C849B84AA84B984C88424
:1050D000DF80EE80FD800C811B81AA81B981CE0F1B
:1050E000D11D0FB6F894DEBF0FBECDBFED01089500
:1050F000F894FFCFEB20EF20DD20E320E7200F2105
:105100000F210F21F220F820FC20002106210F2181
:105110000A21F121F921FE21082212225C225C22BF
:105120005C221C22262230223A2247225C224F2275
:105130000000AD02200000C18081000000FFFFFFE1
:10514000FF00E100000000000001313020666F72B6
:1051500020783D343220746F2034340A323020708D
:1051600072696E7420780A3330206E6578740A0094
:10517000666F6F003E20002009002C206C696E6570
:105180003A2000206E6561723A20003F00256C6471
:10519000000D0A0000000000DB1D271E021E071E76
:0651A0000A1E1A1EF11D9B
:00000001FF
